{
  "contractName": "Certificate",
  "abi": [
    {
      "inputs": [
        {
          "internalType": "address",
          "name": "_sendToAccount",
          "type": "address"
        },
        {
          "internalType": "string",
          "name": "_ipfsHash",
          "type": "string"
        },
        {
          "internalType": "string",
          "name": "_description",
          "type": "string"
        }
      ],
      "stateMutability": "nonpayable",
      "type": "constructor"
    },
    {
      "inputs": [],
      "name": "active",
      "outputs": [
        {
          "internalType": "string",
          "name": "",
          "type": "string"
        }
      ],
      "stateMutability": "view",
      "type": "function"
    },
    {
      "inputs": [],
      "name": "contractOwner",
      "outputs": [
        {
          "internalType": "address",
          "name": "",
          "type": "address"
        }
      ],
      "stateMutability": "view",
      "type": "function"
    },
    {
      "inputs": [],
      "name": "description",
      "outputs": [
        {
          "internalType": "string",
          "name": "",
          "type": "string"
        }
      ],
      "stateMutability": "view",
      "type": "function"
    },
    {
      "inputs": [],
      "name": "ipfsHash",
      "outputs": [
        {
          "internalType": "string",
          "name": "",
          "type": "string"
        }
      ],
      "stateMutability": "view",
      "type": "function"
    },
    {
      "inputs": [],
      "name": "sendToAccount",
      "outputs": [
        {
          "internalType": "address",
          "name": "",
          "type": "address"
        }
      ],
      "stateMutability": "view",
      "type": "function"
    },
    {
      "inputs": [
        {
          "internalType": "string",
          "name": "_ipfsHash",
          "type": "string"
        },
        {
          "internalType": "string",
          "name": "_description",
          "type": "string"
        }
      ],
      "name": "setCertificate",
      "outputs": [],
      "stateMutability": "nonpayable",
      "type": "function"
    },
    {
      "inputs": [
        {
          "internalType": "string",
          "name": "_active",
          "type": "string"
        }
      ],
      "name": "setActive",
      "outputs": [],
      "stateMutability": "nonpayable",
      "type": "function"
    }
  ],
  "bytecode": "0x60806040523480156200001157600080fd5b5060405162000d9d38038062000d9d8339818101604052810190620000379190620003f3565b336000806101000a81548173ffffffffffffffffffffffffffffffffffffffff021916908373ffffffffffffffffffffffffffffffffffffffff16021790555082600160006101000a81548173ffffffffffffffffffffffffffffffffffffffff021916908373ffffffffffffffffffffffffffffffffffffffff1602179055508160029080519060200190620000d092919062000141565b508060039080519060200190620000e992919062000141565b506040518060400160405280600481526020017f7472756500000000000000000000000000000000000000000000000000000000815250600490805190602001906200013792919062000141565b50505050620004f2565b8280546200014f90620004bc565b90600052602060002090601f016020900481019282620001735760008555620001bf565b82601f106200018e57805160ff1916838001178555620001bf565b82800160010185558215620001bf579182015b82811115620001be578251825591602001919060010190620001a1565b5b509050620001ce9190620001d2565b5090565b5b80821115620001ed576000816000905550600101620001d3565b5090565b6000604051905090565b600080fd5b600080fd5b600073ffffffffffffffffffffffffffffffffffffffff82169050919050565b6000620002328262000205565b9050919050565b620002448162000225565b81146200025057600080fd5b50565b600081519050620002648162000239565b92915050565b600080fd5b600080fd5b6000601f19601f8301169050919050565b7f4e487b7100000000000000000000000000000000000000000000000000000000600052604160045260246000fd5b620002bf8262000274565b810181811067ffffffffffffffff82111715620002e157620002e062000285565b5b80604052505050565b6000620002f6620001f1565b9050620003048282620002b4565b919050565b600067ffffffffffffffff82111562000327576200032662000285565b5b620003328262000274565b9050602081019050919050565b60005b838110156200035f57808201518184015260208101905062000342565b838111156200036f576000848401525b50505050565b60006200038c620003868462000309565b620002ea565b905082815260208101848484011115620003ab57620003aa6200026f565b5b620003b88482856200033f565b509392505050565b600082601f830112620003d857620003d76200026a565b5b8151620003ea84826020860162000375565b91505092915050565b6000806000606084860312156200040f576200040e620001fb565b5b60006200041f8682870162000253565b935050602084015167ffffffffffffffff81111562000443576200044262000200565b5b6200045186828701620003c0565b925050604084015167ffffffffffffffff81111562000475576200047462000200565b5b6200048386828701620003c0565b9150509250925092565b7f4e487b7100000000000000000000000000000000000000000000000000000000600052602260045260246000fd5b60006002820490506001821680620004d557607f821691505b60208210811415620004ec57620004eb6200048d565b5b50919050565b61089b80620005026000396000f3fe608060405234801561001057600080fd5b506004361061007d5760003560e01c8063bc51ddcb1161005b578063bc51ddcb146100dc578063c623674f146100f8578063ce606ee014610116578063d482725f146101345761007d565b806302fb0c5e146100825780637284e416146100a057806378aab4cb146100be575b600080fd5b61008a610150565b604051610097919061057c565b60405180910390f35b6100a86101de565b6040516100b5919061057c565b60405180910390f35b6100c661026c565b6040516100d391906105df565b60405180910390f35b6100f660048036038101906100f19190610743565b610292565b005b61010061031c565b60405161010d919061057c565b60405180910390f35b61011e6103aa565b60405161012b91906105df565b60405180910390f35b61014e600480360381019061014991906107bb565b6103ce565b005b6004805461015d90610833565b80601f016020809104026020016040519081016040528092919081815260200182805461018990610833565b80156101d65780601f106101ab576101008083540402835291602001916101d6565b820191906000526020600020905b8154815290600101906020018083116101b957829003601f168201915b505050505081565b600380546101eb90610833565b80601f016020809104026020016040519081016040528092919081815260200182805461021790610833565b80156102645780601f1061023957610100808354040283529160200191610264565b820191906000526020600020905b81548152906001019060200180831161024757829003601f168201915b505050505081565b600160009054906101000a900473ffffffffffffffffffffffffffffffffffffffff1681565b60008054906101000a900473ffffffffffffffffffffffffffffffffffffffff1673ffffffffffffffffffffffffffffffffffffffff163373ffffffffffffffffffffffffffffffffffffffff16146102ea57600080fd5b8160029080519060200190610300929190610440565b508060039080519060200190610317929190610440565b505050565b6002805461032990610833565b80601f016020809104026020016040519081016040528092919081815260200182805461035590610833565b80156103a25780601f10610377576101008083540402835291602001916103a2565b820191906000526020600020905b81548152906001019060200180831161038557829003601f168201915b505050505081565b60008054906101000a900473ffffffffffffffffffffffffffffffffffffffff1681565b60008054906101000a900473ffffffffffffffffffffffffffffffffffffffff1673ffffffffffffffffffffffffffffffffffffffff163373ffffffffffffffffffffffffffffffffffffffff161461042657600080fd5b806004908051906020019061043c929190610440565b5050565b82805461044c90610833565b90600052602060002090601f01602090048101928261046e57600085556104b5565b82601f1061048757805160ff19168380011785556104b5565b828001600101855582156104b5579182015b828111156104b4578251825591602001919060010190610499565b5b5090506104c291906104c6565b5090565b5b808211156104df5760008160009055506001016104c7565b5090565b600081519050919050565b600082825260208201905092915050565b60005b8381101561051d578082015181840152602081019050610502565b8381111561052c576000848401525b50505050565b6000601f19601f8301169050919050565b600061054e826104e3565b61055881856104ee565b93506105688185602086016104ff565b61057181610532565b840191505092915050565b600060208201905081810360008301526105968184610543565b905092915050565b600073ffffffffffffffffffffffffffffffffffffffff82169050919050565b60006105c98261059e565b9050919050565b6105d9816105be565b82525050565b60006020820190506105f460008301846105d0565b92915050565b6000604051905090565b600080fd5b600080fd5b600080fd5b600080fd5b7f4e487b7100000000000000000000000000000000000000000000000000000000600052604160045260246000fd5b61065082610532565b810181811067ffffffffffffffff8211171561066f5761066e610618565b5b80604052505050565b60006106826105fa565b905061068e8282610647565b919050565b600067ffffffffffffffff8211156106ae576106ad610618565b5b6106b782610532565b9050602081019050919050565b82818337600083830152505050565b60006106e66106e184610693565b610678565b90508281526020810184848401111561070257610701610613565b5b61070d8482856106c4565b509392505050565b600082601f83011261072a5761072961060e565b5b813561073a8482602086016106d3565b91505092915050565b6000806040838503121561075a57610759610604565b5b600083013567ffffffffffffffff81111561077857610777610609565b5b61078485828601610715565b925050602083013567ffffffffffffffff8111156107a5576107a4610609565b5b6107b185828601610715565b9150509250929050565b6000602082840312156107d1576107d0610604565b5b600082013567ffffffffffffffff8111156107ef576107ee610609565b5b6107fb84828501610715565b91505092915050565b7f4e487b7100000000000000000000000000000000000000000000000000000000600052602260045260246000fd5b6000600282049050600182168061084b57607f821691505b6020821081141561085f5761085e610804565b5b5091905056fea26469706673582212201ed88f8f20eececc76a3f7bb1f16a101e2785761bb9a5d21215e86f9ff4d42d664736f6c634300080a0033",
  "immutableReferences": {},
  "source": "pragma solidity ^0.8.10;\r\n\r\ncontract Certificate {\r\n    \r\naddress public contractOwner;\r\naddress public sendToAccount;\r\nstring public ipfsHash;\r\nstring public description;\r\nstring public active;\r\n\r\nconstructor (address _sendToAccount, string memory _ipfsHash, string memory  _description) public {\r\n    contractOwner = msg.sender;\r\n    sendToAccount = _sendToAccount;\r\n    ipfsHash = _ipfsHash;\r\n    description = _description;\r\n    active = \"true\";\r\n}\r\nfunction setCertificate(string memory _ipfsHash, string memory _description) public {\r\n    if (msg.sender != contractOwner) { revert(); }\r\n    ipfsHash = _ipfsHash;\r\n    description = _description;\r\n}\r\nfunction setActive(string memory _active) public {\r\n    if (msg.sender != contractOwner) { revert(); }\r\n    active = _active;\r\n    }\r\n}",
  "sourcePath": "D:\\Education\\University\\TERM7\\Narm1\\Project\\Development\\Back-end\\DevDID-Backend\\Backend\\contracts\\VC.sol",
  "compiler": {
    "name": "solc",
    "version": "0.8.10+commit.fc410830.Emscripten.clang"
  },
  "schemaVersion": "3.4.3",
  "updatedAt": "2021-12-14T13:43:55.082Z",
  "devdoc": {
    "kind": "dev",
    "methods": {},
    "version": 1
  },
  "userdoc": {
    "kind": "user",
    "methods": {},
    "version": 1
  }
}