{
  "contractName": "Issuer",
  "abi": [
    {
      "inputs": [],
      "stateMutability": "nonpayable",
      "type": "constructor"
    },
    {
      "anonymous": false,
      "inputs": [
        {
          "indexed": false,
          "internalType": "string",
          "name": "hash",
          "type": "string"
        },
        {
          "indexed": false,
          "internalType": "uint256",
          "name": "index",
          "type": "uint256"
        }
      ],
      "name": "HashSaved",
      "type": "event"
    },
    {
      "anonymous": false,
      "inputs": [
        {
          "indexed": false,
          "internalType": "string",
          "name": "fuck",
          "type": "string"
        }
      ],
      "name": "creation",
      "type": "event"
    },
    {
      "inputs": [
        {
          "internalType": "string",
          "name": "HashOfVC",
          "type": "string"
        }
      ],
      "name": "mapTheVC",
      "outputs": [
        {
          "internalType": "string",
          "name": "",
          "type": "string"
        }
      ],
      "stateMutability": "nonpayable",
      "type": "function"
    }
  ],
  "bytecode": "0x6080604052600060015534801561001557600080fd5b50336000806101000a81548173ffffffffffffffffffffffffffffffffffffffff021916908373ffffffffffffffffffffffffffffffffffffffff1602179055507fc3198ef6d8d62d4e564eb917180bd7afe14344db7a08c8c54d14330092d5d68f604051610083906100ed565b60405180910390a161010d565b600082825260208201905092915050565b7f4663756b00000000000000000000000000000000000000000000000000000000600082015250565b60006100d7600483610090565b91506100e2826100a1565b602082019050919050565b60006020820190508181036000830152610106816100ca565b9050919050565b6107858061011c6000396000f3fe608060405234801561001057600080fd5b506004361061002b5760003560e01c8063ff1c855814610030575b600080fd5b61004a600480360381019061004591906103d2565b610060565b60405161005791906104a3565b60405180910390f35b606060008054906101000a900473ffffffffffffffffffffffffffffffffffffffff1673ffffffffffffffffffffffffffffffffffffffff163373ffffffffffffffffffffffffffffffffffffffff16146100f0576040517f08c379a00000000000000000000000000000000000000000000000000000000081526004016100e790610537565b60405180910390fd5b8160026000600154815260200190815260200160002090805190602001906101199291906101d5565b50600180600082825461012c9190610590565b925050819055507fdd86a2b7b2d8557a93551c3f578adcc374ed780b8abf22f822d841b37a6cf290600260006001805461016691906105e6565b81526020019081526020016000206001805461018291906105e6565b60405161019092919061071f565b60405180910390a16040518060400160405280600f81526020017f4675636b20626c6f636b636861696e00000000000000000000000000000000008152509050919050565b8280546101e190610649565b90600052602060002090601f016020900481019282610203576000855561024a565b82601f1061021c57805160ff191683800117855561024a565b8280016001018555821561024a579182015b8281111561024957825182559160200191906001019061022e565b5b509050610257919061025b565b5090565b5b8082111561027457600081600090555060010161025c565b5090565b6000604051905090565b600080fd5b600080fd5b600080fd5b600080fd5b6000601f19601f8301169050919050565b7f4e487b7100000000000000000000000000000000000000000000000000000000600052604160045260246000fd5b6102df82610296565b810181811067ffffffffffffffff821117156102fe576102fd6102a7565b5b80604052505050565b6000610311610278565b905061031d82826102d6565b919050565b600067ffffffffffffffff82111561033d5761033c6102a7565b5b61034682610296565b9050602081019050919050565b82818337600083830152505050565b600061037561037084610322565b610307565b90508281526020810184848401111561039157610390610291565b5b61039c848285610353565b509392505050565b600082601f8301126103b9576103b861028c565b5b81356103c9848260208601610362565b91505092915050565b6000602082840312156103e8576103e7610282565b5b600082013567ffffffffffffffff81111561040657610405610287565b5b610412848285016103a4565b91505092915050565b600081519050919050565b600082825260208201905092915050565b60005b8381101561045557808201518184015260208101905061043a565b83811115610464576000848401525b50505050565b60006104758261041b565b61047f8185610426565b935061048f818560208601610437565b61049881610296565b840191505092915050565b600060208201905081810360008301526104bd818461046a565b905092915050565b7f4f6e6c7920746865206f776e657220697320616c6c6f77656420746f2061636360008201527f65737320746869732066756e6374696f6e2e0000000000000000000000000000602082015250565b6000610521603283610426565b915061052c826104c5565b604082019050919050565b6000602082019050818103600083015261055081610514565b9050919050565b6000819050919050565b7f4e487b7100000000000000000000000000000000000000000000000000000000600052601160045260246000fd5b600061059b82610557565b91506105a683610557565b9250827fffffffffffffffffffffffffffffffffffffffffffffffffffffffffffffffff038211156105db576105da610561565b5b828201905092915050565b60006105f182610557565b91506105fc83610557565b92508282101561060f5761060e610561565b5b828203905092915050565b7f4e487b7100000000000000000000000000000000000000000000000000000000600052602260045260246000fd5b6000600282049050600182168061066157607f821691505b602082108114156106755761067461061a565b5b50919050565b60008190508160005260206000209050919050565b6000815461069d81610649565b6106a78186610426565b945060018216600081146106c257600181146106d457610707565b60ff1983168652602086019350610707565b6106dd8561067b565b60005b838110156106ff578154818901526001820191506020810190506106e0565b808801955050505b50505092915050565b61071981610557565b82525050565b600060408201905081810360008301526107398185610690565b90506107486020830184610710565b939250505056fea2646970667358221220afdf635334bfedabfe6d4577bb6409dc44eec7091a0f689b1e2da04c5ff0318864736f6c634300080a0033",
  "immutableReferences": {},
  "source": "pragma solidity ^0.8.10;\r\n\r\n\r\ncontract Issuer {\r\n    // Save in blockchain\r\n    // Issuer index : VC hash\r\n    address owner;\r\n    uint index = 0 ;\r\n    mapping ( uint => string ) myHashes;\r\n\r\n    event HashSaved (string hash , uint index ) ;\r\n    event creation (string fuck);\r\n\r\n      modifier onlyOwner() {\r\n        require( msg.sender == owner, \"Only the owner is allowed to access this function.\" );\r\n        _;\r\n    }\r\n\r\n    constructor() {\r\n        owner = msg.sender;\r\n        emit creation(\"Fcuk\");\r\n    }\r\n\r\n    function mapTheVC ( string memory HashOfVC)  public onlyOwner returns ( string memory ) {\r\n\r\n        myHashes[ index ] = HashOfVC ;\r\n        index +=1;\r\n        emit HashSaved( myHashes[ index-1 ] , index-1 );\r\n        return 'Fuck blockchain';\r\n        \r\n    } \r\n\r\n}",
  "sourcePath": "D:\\Education\\University\\TERM7\\Narm1\\Project\\Development\\Back-end\\DevDID-Backend\\Backend\\contracts\\Issuer.sol",
  "compiler": {
    "name": "solc",
    "version": "0.8.10+commit.fc410830.Emscripten.clang"
  },
  "schemaVersion": "3.4.3",
  "updatedAt": "2021-12-24T23:17:05.877Z",
  "networkType": "ethereum",
  "devdoc": {
    "kind": "dev",
    "methods": {},
    "version": 1
  },
  "userdoc": {
    "kind": "user",
    "methods": {},
    "version": 1
  }
}