{
  "contractName": "VC",
  "abi": [
    {
      "inputs": [
        {
          "internalType": "address",
          "name": "_sendToAccount",
          "type": "address"
        },
        {
          "internalType": "string",
          "name": "_ipfsHash",
          "type": "string"
        },
        {
          "internalType": "string",
          "name": "_description",
          "type": "string"
        }
      ],
      "stateMutability": "nonpayable",
      "type": "constructor"
    },
    {
      "anonymous": false,
      "inputs": [
        {
          "indexed": false,
          "internalType": "address",
          "name": "ads",
          "type": "address"
        },
        {
          "indexed": false,
          "internalType": "string",
          "name": "hashh",
          "type": "string"
        },
        {
          "indexed": false,
          "internalType": "string",
          "name": "desc",
          "type": "string"
        }
      ],
      "name": "printVC",
      "type": "event"
    },
    {
      "inputs": [],
      "name": "active",
      "outputs": [
        {
          "internalType": "string",
          "name": "",
          "type": "string"
        }
      ],
      "stateMutability": "view",
      "type": "function"
    },
    {
      "inputs": [],
      "name": "contractOwner",
      "outputs": [
        {
          "internalType": "address",
          "name": "",
          "type": "address"
        }
      ],
      "stateMutability": "view",
      "type": "function"
    },
    {
      "inputs": [],
      "name": "description",
      "outputs": [
        {
          "internalType": "string",
          "name": "",
          "type": "string"
        }
      ],
      "stateMutability": "view",
      "type": "function"
    },
    {
      "inputs": [],
      "name": "ipfsHash",
      "outputs": [
        {
          "internalType": "string",
          "name": "",
          "type": "string"
        }
      ],
      "stateMutability": "view",
      "type": "function"
    },
    {
      "inputs": [],
      "name": "sendToAccount",
      "outputs": [
        {
          "internalType": "address",
          "name": "",
          "type": "address"
        }
      ],
      "stateMutability": "view",
      "type": "function"
    },
    {
      "inputs": [
        {
          "internalType": "string",
          "name": "_ipfsHash",
          "type": "string"
        },
        {
          "internalType": "string",
          "name": "_description",
          "type": "string"
        }
      ],
      "name": "setCertificate",
      "outputs": [],
      "stateMutability": "nonpayable",
      "type": "function"
    },
    {
      "inputs": [
        {
          "internalType": "string",
          "name": "_active",
          "type": "string"
        }
      ],
      "name": "setActive",
      "outputs": [],
      "stateMutability": "nonpayable",
      "type": "function"
    }
  ],
  "bytecode": "0x60806040523480156200001157600080fd5b5060405162000f0c38038062000f0c833981810160405281019062000037919062000454565b336000806101000a81548173ffffffffffffffffffffffffffffffffffffffff021916908373ffffffffffffffffffffffffffffffffffffffff16021790555082600160006101000a81548173ffffffffffffffffffffffffffffffffffffffff021916908373ffffffffffffffffffffffffffffffffffffffff1602179055508160029080519060200190620000d0929190620001a2565b508060039080519060200190620000e9929190620001a2565b506040518060400160405280600481526020017f74727565000000000000000000000000000000000000000000000000000000008152506004908051906020019062000137929190620001a2565b507f6c243ef855142577a60a631db043ceafcbbf83af5fdc607a40b49028ef9c133f600160009054906101000a900473ffffffffffffffffffffffffffffffffffffffff1660026003604051620001919392919062000616565b60405180910390a150505062000661565b828054620001b0906200052e565b90600052602060002090601f016020900481019282620001d4576000855562000220565b82601f10620001ef57805160ff191683800117855562000220565b8280016001018555821562000220579182015b828111156200021f57825182559160200191906001019062000202565b5b5090506200022f919062000233565b5090565b5b808211156200024e57600081600090555060010162000234565b5090565b6000604051905090565b600080fd5b600080fd5b600073ffffffffffffffffffffffffffffffffffffffff82169050919050565b6000620002938262000266565b9050919050565b620002a58162000286565b8114620002b157600080fd5b50565b600081519050620002c5816200029a565b92915050565b600080fd5b600080fd5b6000601f19601f8301169050919050565b7f4e487b7100000000000000000000000000000000000000000000000000000000600052604160045260246000fd5b6200032082620002d5565b810181811067ffffffffffffffff82111715620003425762000341620002e6565b5b80604052505050565b60006200035762000252565b905062000365828262000315565b919050565b600067ffffffffffffffff821115620003885762000387620002e6565b5b6200039382620002d5565b9050602081019050919050565b60005b83811015620003c0578082015181840152602081019050620003a3565b83811115620003d0576000848401525b50505050565b6000620003ed620003e7846200036a565b6200034b565b9050828152602081018484840111156200040c576200040b620002d0565b5b62000419848285620003a0565b509392505050565b600082601f830112620004395762000438620002cb565b5b81516200044b848260208601620003d6565b91505092915050565b60008060006060848603121562000470576200046f6200025c565b5b60006200048086828701620002b4565b935050602084015167ffffffffffffffff811115620004a457620004a362000261565b5b620004b28682870162000421565b925050604084015167ffffffffffffffff811115620004d657620004d562000261565b5b620004e48682870162000421565b9150509250925092565b620004f98162000286565b82525050565b7f4e487b7100000000000000000000000000000000000000000000000000000000600052602260045260246000fd5b600060028204905060018216806200054757607f821691505b602082108114156200055e576200055d620004ff565b5b50919050565b600082825260208201905092915050565b60008190508160005260206000209050919050565b6000815462000599816200052e565b620005a5818662000564565b94506001821660008114620005c35760018114620005d6576200060d565b60ff19831686526020860193506200060d565b620005e18562000575565b60005b838110156200060557815481890152600182019150602081019050620005e4565b808801955050505b50505092915050565b60006060820190506200062d6000830186620004ee565b81810360208301526200064181856200058a565b905081810360408301526200065781846200058a565b9050949350505050565b61089b80620006716000396000f3fe608060405234801561001057600080fd5b506004361061007d5760003560e01c8063bc51ddcb1161005b578063bc51ddcb146100dc578063c623674f146100f8578063ce606ee014610116578063d482725f146101345761007d565b806302fb0c5e146100825780637284e416146100a057806378aab4cb146100be575b600080fd5b61008a610150565b604051610097919061057c565b60405180910390f35b6100a86101de565b6040516100b5919061057c565b60405180910390f35b6100c661026c565b6040516100d391906105df565b60405180910390f35b6100f660048036038101906100f19190610743565b610292565b005b61010061031c565b60405161010d919061057c565b60405180910390f35b61011e6103aa565b60405161012b91906105df565b60405180910390f35b61014e600480360381019061014991906107bb565b6103ce565b005b6004805461015d90610833565b80601f016020809104026020016040519081016040528092919081815260200182805461018990610833565b80156101d65780601f106101ab576101008083540402835291602001916101d6565b820191906000526020600020905b8154815290600101906020018083116101b957829003601f168201915b505050505081565b600380546101eb90610833565b80601f016020809104026020016040519081016040528092919081815260200182805461021790610833565b80156102645780601f1061023957610100808354040283529160200191610264565b820191906000526020600020905b81548152906001019060200180831161024757829003601f168201915b505050505081565b600160009054906101000a900473ffffffffffffffffffffffffffffffffffffffff1681565b60008054906101000a900473ffffffffffffffffffffffffffffffffffffffff1673ffffffffffffffffffffffffffffffffffffffff163373ffffffffffffffffffffffffffffffffffffffff16146102ea57600080fd5b8160029080519060200190610300929190610440565b508060039080519060200190610317929190610440565b505050565b6002805461032990610833565b80601f016020809104026020016040519081016040528092919081815260200182805461035590610833565b80156103a25780601f10610377576101008083540402835291602001916103a2565b820191906000526020600020905b81548152906001019060200180831161038557829003601f168201915b505050505081565b60008054906101000a900473ffffffffffffffffffffffffffffffffffffffff1681565b60008054906101000a900473ffffffffffffffffffffffffffffffffffffffff1673ffffffffffffffffffffffffffffffffffffffff163373ffffffffffffffffffffffffffffffffffffffff161461042657600080fd5b806004908051906020019061043c929190610440565b5050565b82805461044c90610833565b90600052602060002090601f01602090048101928261046e57600085556104b5565b82601f1061048757805160ff19168380011785556104b5565b828001600101855582156104b5579182015b828111156104b4578251825591602001919060010190610499565b5b5090506104c291906104c6565b5090565b5b808211156104df5760008160009055506001016104c7565b5090565b600081519050919050565b600082825260208201905092915050565b60005b8381101561051d578082015181840152602081019050610502565b8381111561052c576000848401525b50505050565b6000601f19601f8301169050919050565b600061054e826104e3565b61055881856104ee565b93506105688185602086016104ff565b61057181610532565b840191505092915050565b600060208201905081810360008301526105968184610543565b905092915050565b600073ffffffffffffffffffffffffffffffffffffffff82169050919050565b60006105c98261059e565b9050919050565b6105d9816105be565b82525050565b60006020820190506105f460008301846105d0565b92915050565b6000604051905090565b600080fd5b600080fd5b600080fd5b600080fd5b7f4e487b7100000000000000000000000000000000000000000000000000000000600052604160045260246000fd5b61065082610532565b810181811067ffffffffffffffff8211171561066f5761066e610618565b5b80604052505050565b60006106826105fa565b905061068e8282610647565b919050565b600067ffffffffffffffff8211156106ae576106ad610618565b5b6106b782610532565b9050602081019050919050565b82818337600083830152505050565b60006106e66106e184610693565b610678565b90508281526020810184848401111561070257610701610613565b5b61070d8482856106c4565b509392505050565b600082601f83011261072a5761072961060e565b5b813561073a8482602086016106d3565b91505092915050565b6000806040838503121561075a57610759610604565b5b600083013567ffffffffffffffff81111561077857610777610609565b5b61078485828601610715565b925050602083013567ffffffffffffffff8111156107a5576107a4610609565b5b6107b185828601610715565b9150509250929050565b6000602082840312156107d1576107d0610604565b5b600082013567ffffffffffffffff8111156107ef576107ee610609565b5b6107fb84828501610715565b91505092915050565b7f4e487b7100000000000000000000000000000000000000000000000000000000600052602260045260246000fd5b6000600282049050600182168061084b57607f821691505b6020821081141561085f5761085e610804565b5b5091905056fea26469706673582212203498955c221cced5c4e2192b1de783989436b671e73903c020bd7f617f0bca4164736f6c634300080a0033",
  "immutableReferences": {},
  "source": "pragma solidity ^0.8.10;\r\n\r\ncontract VC {\r\n\r\naddress public contractOwner;\r\naddress public sendToAccount;\r\nstring public ipfsHash;\r\nstring public description;\r\nstring public active;\r\n\r\nevent printVC (address ads , string hashh , string desc);\r\n\r\nconstructor (address _sendToAccount, string memory _ipfsHash, string memory  _description) public {\r\n    contractOwner = msg.sender;\r\n    sendToAccount = _sendToAccount;\r\n    ipfsHash = _ipfsHash;\r\n    description = _description;\r\n    active = \"true\";\r\n    emit printVC(sendToAccount, ipfsHash, description);\r\n}\r\nfunction setCertificate(string memory _ipfsHash, string memory _description) public {\r\n    if (msg.sender != contractOwner) { revert(); }\r\n    ipfsHash = _ipfsHash;\r\n    description = _description;\r\n}\r\nfunction setActive(string memory _active) public {\r\n    if (msg.sender != contractOwner) { revert(); }\r\n    active = _active;\r\n    }\r\n\r\n}",
  "sourcePath": "D:\\Education\\University\\TERM7\\Narm1\\Project\\Development\\Back-end\\DevDID-Backend\\Backend\\contracts\\VC.sol",
  "compiler": {
    "name": "solc",
    "version": "0.8.10+commit.fc410830.Emscripten.clang"
  },
  "schemaVersion": "3.4.3",
  "updatedAt": "2021-12-21T10:07:40.307Z",
  "devdoc": {
    "kind": "dev",
    "methods": {},
    "version": 1
  },
  "userdoc": {
    "kind": "user",
    "methods": {},
    "version": 1
  }
}