{
  "contractName": "Verification",
  "abi": [
    {
      "inputs": [
        {
          "internalType": "string",
          "name": "str",
          "type": "string"
        }
      ],
      "name": "getHash",
      "outputs": [
        {
          "internalType": "bytes32",
          "name": "",
          "type": "bytes32"
        }
      ],
      "stateMutability": "pure",
      "type": "function",
      "constant": true
    },
    {
      "inputs": [
        {
          "internalType": "bytes32",
          "name": "_messageHash",
          "type": "bytes32"
        }
      ],
      "name": "getEthSignedHash",
      "outputs": [
        {
          "internalType": "bytes32",
          "name": "",
          "type": "bytes32"
        }
      ],
      "stateMutability": "pure",
      "type": "function",
      "constant": true
    },
    {
      "inputs": [
        {
          "internalType": "bytes32",
          "name": "_ethSignedMessageHash",
          "type": "bytes32"
        },
        {
          "internalType": "bytes32",
          "name": "r",
          "type": "bytes32"
        },
        {
          "internalType": "bytes32",
          "name": "s",
          "type": "bytes32"
        },
        {
          "internalType": "uint8",
          "name": "v",
          "type": "uint8"
        }
      ],
      "name": "verify",
      "outputs": [
        {
          "internalType": "address",
          "name": "",
          "type": "address"
        }
      ],
      "stateMutability": "pure",
      "type": "function",
      "constant": true
    }
  ],
  "bytecode": "0x608060405234801561001057600080fd5b5061066b806100206000396000f3fe608060405234801561001057600080fd5b50600436106100415760003560e01c80632f4ea5ea146100465780635b6beeb91461007657806369b13276146100a6575b600080fd5b610060600480360381019061005b91906101db565b6100d6565b60405161006d9190610217565b60405180910390f35b610090600480360381019061008b9190610378565b610106565b60405161009d9190610217565b60405180910390f35b6100c060048036038101906100bb91906103fa565b610136565b6040516100cd91906104a2565b60405180910390f35b6000816040516020016100e99190610535565b604051602081830303815290604052805190602001209050919050565b60008160405160200161011991906105ca565b604051602081830303815290604052805190602001209050919050565b60006001858386866040516000815260200160405260405161015b94939291906105f0565b6020604051602081039080840390855afa15801561017d573d6000803e3d6000fd5b505050602060405103519050949350505050565b6000604051905090565b600080fd5b600080fd5b6000819050919050565b6101b8816101a5565b81146101c357600080fd5b50565b6000813590506101d5816101af565b92915050565b6000602082840312156101f1576101f061019b565b5b60006101ff848285016101c6565b91505092915050565b610211816101a5565b82525050565b600060208201905061022c6000830184610208565b92915050565b600080fd5b600080fd5b6000601f19601f8301169050919050565b7f4e487b7100000000000000000000000000000000000000000000000000000000600052604160045260246000fd5b6102858261023c565b810181811067ffffffffffffffff821117156102a4576102a361024d565b5b80604052505050565b60006102b7610191565b90506102c3828261027c565b919050565b600067ffffffffffffffff8211156102e3576102e261024d565b5b6102ec8261023c565b9050602081019050919050565b82818337600083830152505050565b600061031b610316846102c8565b6102ad565b90508281526020810184848401111561033757610336610237565b5b6103428482856102f9565b509392505050565b600082601f83011261035f5761035e610232565b5b813561036f848260208601610308565b91505092915050565b60006020828403121561038e5761038d61019b565b5b600082013567ffffffffffffffff8111156103ac576103ab6101a0565b5b6103b88482850161034a565b91505092915050565b600060ff82169050919050565b6103d7816103c1565b81146103e257600080fd5b50565b6000813590506103f4816103ce565b92915050565b600080600080608085870312156104145761041361019b565b5b6000610422878288016101c6565b9450506020610433878288016101c6565b9350506040610444878288016101c6565b9250506060610455878288016103e5565b91505092959194509250565b600073ffffffffffffffffffffffffffffffffffffffff82169050919050565b600061048c82610461565b9050919050565b61049c81610481565b82525050565b60006020820190506104b76000830184610493565b92915050565b600081905092915050565b7f19457468657265756d205369676e6564204d6573736167653a0a333200000000600082015250565b60006104fe601c836104bd565b9150610509826104c8565b601c82019050919050565b6000819050919050565b61052f61052a826101a5565b610514565b82525050565b6000610540826104f1565b915061054c828461051e565b60208201915081905092915050565b600081519050919050565b60005b83811015610584578082015181840152602081019050610569565b83811115610593576000848401525b50505050565b60006105a48261055b565b6105ae81856104bd565b93506105be818560208601610566565b80840191505092915050565b60006105d68284610599565b915081905092915050565b6105ea816103c1565b82525050565b60006080820190506106056000830187610208565b61061260208301866105e1565b61061f6040830185610208565b61062c6060830184610208565b9594505050505056fea2646970667358221220feed00ca686e78a5afdea83296af2a8fdae764483702a46ce8286aea2820b25d64736f6c634300080a0033",
  "immutableReferences": {},
  "source": "// SPDX-License-Identifier: MIT\npragma solidity >=0.4.22 <0.9.0;\n\n\n\ncontract Verification {\n  \n    // use this function to get the hash of any string\n    function getHash(string memory str) public pure returns (bytes32) {\n        return keccak256(abi.encodePacked(str));\n    }\n    \n    \n    // take the keccak256 hashed message from the getHash function above and input into this function\n    // this function prefixes the hash above with \\x19Ethereum signed message:\\n32 + hash\n    // and produces a new hash signature\n    function getEthSignedHash(bytes32 _messageHash) public pure returns (bytes32) {\n        return keccak256(abi.encodePacked(\"\\x19Ethereum Signed Message:\\n32\", _messageHash));\n    }\n    \n    \n    // input the getEthSignedHash results and the signature hash results\n    // the output of this function will be the account number that signed the original message\n    function verify(bytes32 _ethSignedMessageHash, bytes32 r, bytes32 s, uint8 v) public pure returns (address) {\n        return ecrecover(_ethSignedMessageHash, v, r, s);\n    }\n  \n \n}\n\n",
  "sourcePath": "/Users/dorsa/Desktop/lessons/software engineering/project /DevDID/backend/contracts/verification.sol",
  "compiler": {
    "name": "solc",
    "version": "0.8.10+commit.fc410830.Emscripten.clang"
  },
  "schemaVersion": "3.4.3",
  "updatedAt": "2021-12-26T09:09:31.807Z",
  "networkType": "ethereum",
  "devdoc": {
    "kind": "dev",
    "methods": {},
    "version": 1
  },
  "userdoc": {
    "kind": "user",
    "methods": {},
    "version": 1
  }
}