{
  "contractName": "Verification",
  "abi": [
    {
      "inputs": [
        {
          "internalType": "bytes32",
          "name": "hash",
          "type": "bytes32"
        },
        {
          "internalType": "bytes",
          "name": "signature",
          "type": "bytes"
        }
      ],
      "name": "recover",
      "outputs": [
        {
          "internalType": "address",
          "name": "",
          "type": "address"
        }
      ],
      "stateMutability": "pure",
      "type": "function",
      "constant": true
    }
  ],
  "bytecode": "0x608060405234801561001057600080fd5b50610487806100206000396000f3fe608060405234801561001057600080fd5b506004361061002b5760003560e01c806319045a2514610030575b600080fd5b61004a600480360381019061004591906102c3565b610060565b6040516100579190610360565b60405180910390f35b600080600080604185511461007b576000935050505061012d565b6020850151925060408501519150606085015160001a9050601b8160ff1610156100af57601b816100ac91906103b7565b90505b601b8160ff16141580156100c75750601c8160ff1614155b156100d8576000935050505061012d565b600186828585604051600081526020016040526040516100fb949392919061040c565b6020604051602081039080840390855afa15801561011d573d6000803e3d6000fd5b5050506020604051035193505050505b92915050565b6000604051905090565b600080fd5b600080fd5b6000819050919050565b61015a81610147565b811461016557600080fd5b50565b60008135905061017781610151565b92915050565b600080fd5b600080fd5b6000601f19601f8301169050919050565b7f4e487b7100000000000000000000000000000000000000000000000000000000600052604160045260246000fd5b6101d082610187565b810181811067ffffffffffffffff821117156101ef576101ee610198565b5b80604052505050565b6000610202610133565b905061020e82826101c7565b919050565b600067ffffffffffffffff82111561022e5761022d610198565b5b61023782610187565b9050602081019050919050565b82818337600083830152505050565b600061026661026184610213565b6101f8565b90508281526020810184848401111561028257610281610182565b5b61028d848285610244565b509392505050565b600082601f8301126102aa576102a961017d565b5b81356102ba848260208601610253565b91505092915050565b600080604083850312156102da576102d961013d565b5b60006102e885828601610168565b925050602083013567ffffffffffffffff81111561030957610308610142565b5b61031585828601610295565b9150509250929050565b600073ffffffffffffffffffffffffffffffffffffffff82169050919050565b600061034a8261031f565b9050919050565b61035a8161033f565b82525050565b60006020820190506103756000830184610351565b92915050565b600060ff82169050919050565b7f4e487b7100000000000000000000000000000000000000000000000000000000600052601160045260246000fd5b60006103c28261037b565b91506103cd8361037b565b92508260ff038211156103e3576103e2610388565b5b828201905092915050565b6103f781610147565b82525050565b6104068161037b565b82525050565b600060808201905061042160008301876103ee565b61042e60208301866103fd565b61043b60408301856103ee565b61044860608301846103ee565b9594505050505056fea264697066735822122005a2ba9e8cd18ad591b1f3123e609277b00018cec093e899406588141d2b928064736f6c634300080a0033",
  "immutableReferences": {},
  "source": "// SPDX-License-Identifier: MIT\npragma solidity >=0.4.22 <0.9.0;\n\n\n\n/*\n * Based upon ECDSA library from OpenZeppelin Solidity\n * https://github.com/OpenZeppelin/openzeppelin-solidity/blob/master/contracts/cryptography/ECDSA.sol\n */\n\ncontract Verification {\n\n  /*\n   * @dev Recover signer address from a message by using their signature\n   * @param hash bytes32 message, the hash is the signed message. What is recovered is the signer address.\n   * @param signature bytes signature, the signature is generated using web3.eth.sign()\n   */\n\n  function recover(bytes32 hash, bytes memory signature)\n    public\n    pure\n    returns (address)\n  {\n    bytes32 r;\n    bytes32 s;\n    uint8 v;\n\n    // Check the signature length\n    if (signature.length != 65) {\n      return (address(0));\n    }\n\n    // Divide the signature in r, s and v variables\n    // ecrecover takes the signature parameters, and the only way to get them\n    // currently is to use assembly.\n    // solium-disable-next-line security/no-inline-assembly\n    assembly {\n      r := mload(add(signature, 0x20))\n      s := mload(add(signature, 0x40))\n      v := byte(0, mload(add(signature, 0x60)))\n    }\n\n    // Version of signature should be 27 or 28, but 0 and 1 are also possible versions\n    if (v < 27) {\n      v += 27;\n    }\n\n    // If the version is correct return the signer address\n    if (v != 27 && v != 28) {\n      return (address(0));\n    } else {\n      // solium-disable-next-line arg-overflow\n      return ecrecover(hash, v, r, s);\n    }\n  }\n}\n\n",
  "sourcePath": "/Users/dorsa/Desktop/lessons/software engineering/project /DevDID/backend/contracts/verification.sol",
  "compiler": {
    "name": "solc",
    "version": "0.8.10+commit.fc410830.Emscripten.clang"
  },
  "schemaVersion": "3.4.3",
  "updatedAt": "2021-12-25T16:39:46.029Z",
  "networkType": "ethereum",
  "devdoc": {
    "kind": "dev",
    "methods": {},
    "version": 1
  },
  "userdoc": {
    "kind": "user",
    "methods": {},
    "version": 1
  }
}